:100000000C942A000C9434000C9434000C943400AA
:100010000C9434000C9434000C9434000C94340090
:100020000C9434000C9434000C9434000C94340080
:100030000C9434000C9434000C9434000C94340070
:100040000C9434000C9434000C9434000C94340060
:100050000C94340011241FBECFE5D8E0DEBFCDBF25
:100060000E945C000C9412010C94000060E081E49A
:100070000E94550013BE12BE089560E081E40E9404
:10008000590083B7816083BF20E030E008C008B624
:1000900000FEFDCF88B7816088BF2F5F3F4F2E30B5
:1000A00083E03807A4F313BE089541E00E94610085
:1000B00008950E94DB0008950E9436000E943D00D2
:1000C000FDCF823431F118F4813439F0089583344E
:1000D000E1F1843409F454C0089541110CC02AB3ED
:1000E00081E090E002C0880F991F6A95E2F7809541
:1000F00082238ABB0895413009F05CC02AB381E0B5
:1001000090E002C0880F991F6A95E2F7822B8ABBA4
:10011000089541110CC027B381E090E002C0880F20
:10012000991F6A95E2F78095822387BB0895413035
:1001300009F040C027B381E090E002C0880F991F0A
:100140006A95E2F7822B87BB089541110CC024B356
:1001500081E090E002C0880F991F6A95E2F78095D0
:10016000822384BB0895413029F524B381E090E0D7
:1001700002C0880F991F6A95E2F7822B84BB08950D
:1001800041110CC021B381E090E002C0880F991F9B
:100190006A95E2F78095822381BB0895413051F43E
:1001A00021B381E090E002C0880F991F6A95E2F7C1
:1001B000822B81BB08958234A1F018F4813431F090
:1001C00008958334C9F0843411F108952BB381E08C
:1001D00090E002C0880F991F6A95E2F782278BBBD7
:1001E000089528B381E090E002C0880F991F6A95B6
:1001F000E2F7822788BB089525B381E090E002C032
:10020000880F991F6A95E2F7822785BB089522B36C
:1002100081E090E002C0880F991F6A95E2F782277B
:0802200082BB0895F894FFCFA2
:00000001FF
